:020000040000FA
:0400000000EF04F019
:020004000000FA
:08000800000169EC03F080EC3B
:0400100000F01000EC
:10010000F2B200EF01F0F0B087EF00F0120069ECFE
:1001100003F0C40E59EC03F069EC03F081B298EFE0
:1001200000F04E0E61EC03F069EC03F0F090120069
:0E013000590E61EC03F069EC03F096EF00F05D
:10020000050E026E50EC01F0380E036011EF01F0A4
:10021000032A0206F9E1A8EC01F0F2921BEC01F0CE
:100220001000046416EF01F009EF01F0042A300E0B
:10023000036E09EF01F069EC03F08B0E59EC03F04B
:1002400069EC03F0000E61EC03F069EC03F0000EC2
:1002500061EC03F069EC03F0000E61EC03F069EC73
:1002600003F0000E61EC03F069EC03F0000E61ECAA
:1002700003F069EC03F0CC0E59EC03F069EC03F0E9
:10028000000E61EC03F069EC03F0000E61EC03F08A
:1002900069EC03F0000E61EC03F069EC03F012006E
:1002A00069EC03F08B0E59EC03F069EC03F0570E88
:1002B00061EC03F069EC03F0410E61EC03F069ECD2
:1002C00003F0540E61EC03F069EC03F0450E61ECB1
:1002D00003F069EC03F0520E61EC03F069EC03F0FB
:1002E000CC0E59EC03F069EC03F0490E61EC03F01D
:1002F00069EC03F04E0E61EC03F069EC03F0470E7D
:0A03000061EC03F069EC03F0120059
:06030A00F294D58EF28E84
:1003100072EC04F00B0ECF6EDC0ECE6E9E90CD8094
:100320009EA090EF01F000EC03F09E90054E8BEC48
:0603300004F088EF01F06B
:1003500069EC03F0830E59EC03F069EC03F00450F0
:1003600061EC03F069EC03F0035061EC03F069EC1D
:0403700003F0120084
:10060000300E036408EF03F00306A8EC01F01200BB
:10061000300E046412EC03F00406390E036EA8ECED
:1006200001F01200300E036419EC03F0A8EC01F0A5
:100630001200870E59EC03F069EC03F0470E61ECF1
:1006400003F069EC03F0410E61EC03F069EC03F098
:100650004D0E61EC03F069EC03F0450E61EC03F024
:1006600069EC03F0C70E59EC03F069EC03F04F0E90
:1006700061EC03F069EC03F0560E61EC03F069ECF9
:1006800003F0450E61EC03F069EC03F0520E61ECEF
:1006900003F069EC03F04BEF03F01200FA0E076E63
:1006A000FA0E066E000000000606FCE10706F8E1FF
:1006B0001200836E829A8292828474EC03F0829498
:1006C0001200836E828A8292828474EC03F0829498
:1006D00012009568829A8282828474EC03F082947C
:1006E00083BEFAD7956A1200C80E076EFA0E066E20
:0E06F000000000000606D6E10706D2E1120067
:100800000F0EC16E390E046E390E036EF288F2922D
:10081000F086F19A340ECD6E9E900E0E056E956A9E
:10082000946A936882944EEC03F0380E59EC03F00E
:100830004EEC03F00E0E59EC03F069EC03F0010EE0
:1008400059EC03F069EC03F026EF04F0890E59EC43
:1008500003F069EC03F0D50E61EC03F069EC03F0F2
:10086000C90E59EC03F069EC03F0FF0E61EC03F0E4
:1008700069EC03F0800E59EC03F069EC03F0480ECC
:1008800061EC03F069EC03F0500E61EC03F069ECED
:1008900003F03A0E61EC03F069EC03F0A8EC01F010
:1008A000250E61EC03F069EC03F0C00E59EC03F087
:1008B00069EC03F0530E61EC03F069EC03F0550EA4
:1008C00061EC03F069EC03F04E0E61EC03F069ECAF
:1008D00003F03A0E61EC03F069EC03F072EC04F003
:1008E00085EF01F069EC03F0C40E59EC03F069ECFC
:1008F00003F081B284EF04F04E0E61EC03F069EC7A
:1009000003F000EC03F01200590E61EC03F069EC07
:1009100003F083EF04F0938C818C890E59EC03F083
:1009200069EC03F0CE0E61EC03F069EC03F0D59EA8
:04093000F29412002B
:00000001FF
